:020000040800F2
:100000000000012065050008B5050008B5050008D9
:10001000B5050008B5050008B5050008000000009A
:10002000000000000000000000000000B50500080E
:10003000B505000800000000B5050008B50500087A
:1000400000000000B5050008B5050008B50500086A
:10005000B5050008B5050008B5050008B505000898
:10006000B5050008B5050008B5050008B505000888
:10007000B5050008B5050008B5050008B505000878
:10008000B5050008B5050008B5050008000000002A
:10009000000000000000000000000000B50500089E
:1000A000B5050008B5050008B5050008B505000848
:1000B000B5050008B5050008B5050008B505000838
:1000C000B5050008B5050008B5050008B505000828
:1000D000B5050008B5050008B505000800000000DA
:1000E000B5050008B5050008B505000800000000CA
:1000F000000000000000000000000000B50500083E
:1001000000000000B5050008B5050008B5050008A9
:1001100000000000000000000000000000000000DF
:10012000B5050008B5050008B5050008B5050008C7
:10013000B5050008000000000000000000000000FD
:10014000000000000000000000000000B5050008ED
:10015000B5050008B5050008B5050008B505000897
:10016000B5050008B505000800000000000000000B
:10017000000000000000000000000000000000007F
:10018000000000000000000000000000000000006F
:04019000B5050008A9
:1001940010B5054C237833B9044B13B10448AFF3BD
:1001A40000800123237010BD000000200000000027
:1001B4000006000808B5034B1BB103490348AFF31D
:1001C400008008BD000000000400002000060008B4
:1001D40080B400AF4A4B1B68494A43F48033136030
:1001E40000BF474B1B6803F40033002BF9D0444B8A
:1001F4001B6C434A43F080531364424B1B68414ACF
:1002040043F400431360404B1B683F4A43F4E063EC
:1002140013603D4B1B683C4A43F002031360384BA8
:100224005B68374A43F019035360354B5B68344AC3
:1002340043F428535360324B5B68314A23F4403310
:1002440053602F4B5B682E4A43F4800353602C4B5E
:100254009B682B4A23F0F0039360294B9B68284A40
:1002640043F480539360264B9B68254A23F46043F0
:100274009360234B1B68224A43F08073136000BFD2
:100284001F4B1B6803F00073002BF9D01C4B9B68B9
:100294001B4A43F00203936000BF194B9B6803F0B1
:1002A4000C03082BF9D1164B1B6C154A43F00103C0
:1002B40013644FF080431B684FF0804223F0100317
:1002C40013604FF0804353229A624FF080434FF6FD
:1002D400FF72DA624FF080431B684FF0804243F0B4
:1002E4000103136000BF4FF080431B6903F0010357
:1002F400002BF8D000BF00BFBD465DF8047B7047FB
:100304000038024000700040003C024080B483B0DA
:1003140000AF78604FF0804300225A6200BF4FF074
:1003240080435A6A7B689A42F9D300BF00BF0C37F6
:10033400BD465DF8047B704780B584B000AF78603B
:100344000023FB8106E04FF47A70FFF7DFFFFB899F
:100354000133FB81FB897A689A42F4DC00BF00BF59
:100364001037BD4680BD000080B500AFFFF730FFF9
:10037400134B1B6B124A43F001031363104B1B6BAB
:100384000F4A43F0020313630E4B1B680D4A43F4F8
:10039400AA4343F0550313600B4B1B680A4A43F00E
:1003A40015031360084B9B69074A43F400339361B8
:1003B400054B9B69044A43F48023936100BF80BDCD
:1003C40000380240000002400004024080B582B0C0
:1003D40000AF0346FB71124B9B69114A43F480330F
:1003E40093610F4B9B690E4A43F4003393610D4AAA
:1003F400FB7953610A4B9B69094A43F004039361F7
:100404001E20FFF799FF064B9B69054A43F480239E
:1004140093611E20FFF790FF00BF0837BD4680BDE3
:10042400000402400000024080B582B000AF0346E1
:10043400FB71124B9B69114A43F0010393610F4B0B
:100444009B690E4A43F4003393610D4AFB7953616F
:100454000A4B9B69094A43F0040393613220FFF776
:100464006BFF064B9B69054A43F48023936132205A
:10047400FFF762FF00BF0837BD4680BD000402409D
:100484000000024080B500AFFFF76EFF3820FFF791
:100494009DFF1420FFF750FF0C20FFF797FF142057
:1004A400FFF74AFF0620FFF791FF1420FFF744FFF0
:1004B4000120FFF78BFF1420FFF73EFF8020FFF79A
:1004C40085FF3220FFF738FF00BF80BD80B582B0C2
:1004D40000AF786039607B68002B03D07B68012B08
:1004E40004D007E08020FFF771FF03E0C020FFF78E
:1004F4006DFF00BF00BF0837BD4680BD80B582B028
:1005040000AF786006E07B685A1C7A601B78184656
:10051400FFF78AFF7B681B78002BF4D100BF00BF74
:100524000837BD4680BD000080B500AFFFF7AAFFC5
:1005340000210020FFF7CAFF0748FFF7DFFF002173
:100544000120FFF7C3FF0548FFF7D8FF41F28830C9
:10055400FFF7F2FE00BFFDE71806000828060008B2
:100564000D488546AFF300800C480D490D4A002321
:1005740002E0D458C4500433C4188C42F9D30A4A54
:100584000A4C002301E013600432A242FBD300F0C2
:1005940011F8FFF7C9FFFEE700000120000000206A
:1005A4000000002040060008000000201C0000207D
:1005B400FEE7000070B50D4D0D4C641BA410002621
:1005C400A64209D10B4D0C4C00F018F8641BA41082
:1005D4000026A64205D170BD55F8043B9847013664
:1005E400EEE755F8043B98470136F2E73806000871
:1005F40038060008380600083C060008F8B500BFB5
:10060400F8BC08BC9E467047F8B500BFF8BC08BCEF
:040614009E46704747
:10061800437265617465642046696C65000000007A
:100628005375636365737366756C6C7900000000BD
:04063800B9010008FC
:04063C00950100081C
:040000050800056585
:00000001FF
